:4000000000400020110000007D0500007D05000080B500AF00F0B6FA80B500AF234B12221A6001F011FE224B181C01F08DFB012001F01AFE0C2001F0B9FB1E4B1E4A1A6067
:400040001E4B8022D2051A601D4B1D4A126802210A431A601B4B1C4A1A601C4B1B4A126808218A431A60FA23DB00181C01F0EAFB174B181C01F0C8FC164BC02292001A6059
:40008000154B164A1A60164BA62212061A60154B00221A60144B40221A60084B8022D2051A60024B00221A60BD4680BD30001040001BB70004010B40060000800C020B4024
:4000C00078002E407C002E406A2D00006CF02E40DC050000000301400000014040FF008008010B4000010B401801014080B582B000AF72B6414B00221A60FB1D00221A7086
:4001000023E0FB1D1A78131C5B009B185B003C4A9B183B603B681A78597809020A43997809040A43DB781B061343191C3B681A795B791B0213439BB2081C191C00F0A6FA2B
:40014000FB1D1A78FB1D01321A70FB1D1B78012BD7D92C4A2C4B101C191C00F0A7FA2B4B03221A602A4B00221A602A4B00221A60294B2A4A1A602A4B802212061A60294BE4
:40018000992212041A60284B802292021A60274A264B1B78DBB202210B43DBB21370244A234B1B78DBB23C218B43DBB214210B43DBB213701D4A1D4B1B78DBB216210B4393
:4001C000DBB213701B4B81221A601B4B8022D2031A601A4B802212021A60194B01221A60184BC1221A60184B184A1A60FFF714FF00F09CFABD4602B080BDC0466CF02E402F
:40020000443B0100503B01005C3B010000030240000002400800044020500F400400990024500F4030500F4038500F4000700F4001700F4000020440080204400C0204401D
:400240001802044000030440080304400600D80010B5064C2378002B07D1054B002B02D0044800E000BF0123237010BD700F002000000000403B010008B5084B002B03D012
:400280000748084900E000BF07480368002B00D108BD064B002BFBD09847F9E700000000403B0100740F0020A80B00200000000080B500AF012000F017FB012000F052FB27
:4002C00062B601F011F801F051F8044B181C00F089FB00F025F9BD4680BDC0467904000090B583B000AFFFF7E3FF01F033F801F0EFF900F069F801F0A9F901F015F800F024
:4003000033F9021C2C4B1A602B4B1A682B4B1B68D31A2B4A934203D9274B1A68274B1A6029E002F027FAFC1D032002F01BFA031C2370BC1D01F011FA031C2370FB1D1B785B
:40034000032B0CD104F024FA031E042B04D004F01FFA031E062B09D101F0C0FB06E004F017FA031E022B01D001F09EFBBB1D1B78181C01F0F6F900F0F7F8021E0E4B1B6869
:400380009A42CED00F4B1B78002B13D000F0C0FB00F01CFA00F032FA012000F0A5FA012000F0E0FA002000F087FA002000F0C2FA01F0CAFB99E7C0468C0F0020900F00204D
:4003C000E7030000A20F002090B583B000AF00237B6001F0E7F8022001F0F2F8BC1C002001F012F9031C2380BB1C00229A5ED423DB009A422EDD1A4B1B78002B26D0194B73
:400400001B78002B08D0174B00221A7000F0ACF8021C154B1A6019E000F0A6F8021C134B1A60124B1A68104B1B68D31A7B607B68002B07D00E48796801F0A0FF031CDAB233
:400440000C4B1A70094B1A68074B1A60044B00221A7002E0024B01221A70BD4603B090BDAC0B0020AD0B0020980F00209C0F002060EA0000940F002080B582B000AF7860E3
:4004800039607B68282B1AD004D8012B07D0262B0CD029E0412B16D0422B1ED024E0002000F042FB002000F01FFA1DE0104B1B78042B03D10F4B01221A7015E014E00D4B11
:4004C00001221A7010E00C4B01221A70012000F00BFA002000F046FA06E0084B00221A70054B00221A70C046BD4602B080BDC046C2200020A20F0020A00F0020A10F0020A4
:4005000080B500AF054B1B680A331A1C034B1A60042001F00BFDBD4680BDC046A40F002080B500AF0F4B0820191C01F0D5F901F0E5FB0020012101F01FFC0020012101F0E7
:4005400047FC4023FF330020191C01F0A7FC012001F074FC082001F039FA01F0A5FBBD4680BDC0460105000080B500AF024B1B68181CBD4680BDC046A40F002080B500AF2A
:40058000FEE7C04680B586B000AF224B7B61224B3B61204B7B6135E03B691B68FB603B695B68BB603B699B683B6000237B600CE0FB681A68BB681A60BB680433BB60FB68FE
:4005C0000433FB607B6804337B607A683B689A42EED13B69DB683B6000237B6008E0BB6800221A60BB680433BB607B6804337B607A683B689A42F2D13B6910333B617B6938
:40060000013B7B617B69002BC6D102F039F8FFF767FEFEE701000000BC3E010080B582B000AF154B144A126801218A431A6000237B600FE07B68032B04D8104B7A6892003D
:40064000D35800E00E4B0F4A796889008B507B6801337B607B682F2BECD9FFF747FD0A4B00221A60044B044A126801210A431A60BD4602B080BDC046000010400000000011
:400680007D05000000000020C000002080B582B000AF786039607A683B68101C00211A1C02F02CF8BD4602B080BDC04680B586B000AF7860396000233B6100237B612FE0C3
:4006C0007B699B007A68D3181B68BB600F23FB18BA681A70BB68FF229343BB6018E03B695B003A68D3181B781A1CBB68D318191C3B695B003A68D3185B780B703B690133A8
:400700003B610F23FB181A780F23FB18013A1A700F23FB181B78002BE1D17B6901337B617B69022BCCD9BD4606B080BD80B500AF0E4B802212061A600D4B03221A600D4B27
:400740000D4A1A600D4B03221A600D4B802212061A600C4B8022D2031A600B4B00221A60012000F013F8BD4680BDC0460000304030003040800030400440040030003140A0
:4007800000003A4000033A40000E3F4080B584B000AF021CFB1D1A700B4B1B68FB60FB1D1B78002B05D0FB68802212061343FB6003E0FB685B005B08FB60034BFA681A60A7
:4007C000BD4604B080BDC04680033A4080B582B000AF094B1B68DAB2FB1D7F218A431A70054BFA1D12781A60FB1D1B78DB09DBB2181CBD4602B080BD1002044080B500AF93
:4008000000F050F8054B181C00F00EF8032000F017F800F03DF8BD4680BDC0462108000080B500AFBD4680BD80B582B000AF7860024B7A689A64BD4602B080BD00000020FF
:4008400090B585B000AF021CFB1D1A701623FB600B23FC1800F081FF031C23700A4B0A4A12680A491140FA1D1078FA689040021C0A431A600B23FB181B78181C00F071FFB2
:40088000BD4605B090BDC04600E400E0FFFF3FFF80B500AF024B04221A60BD4680BDC04600E100E080B500AF024B04221A60BD4680BDC04680E100E080B582B000AF021CC9
:4008C000FB1D1A70064B064A126806491140FA1D127892040A431A60BD4602B080BDC04608030440FFFFE3FF80B584B000AF021CFB1D1A700E4B1B68DAB20F23FB18402190
:400900008A431A70FB1D1B789B01DBB240221340D9B20F23FB180F22BA1812780A431A70034B0F22BA1812781A60BD4604B080BD0003044080B582B000AF021CFB1D1A703D
:40094000064B064A126806491140FA1D127852050A431A60BD4602B080BDC04608030440FFFF1FFF80B584B000AF021CFB1D1A700D4B1B68DAB20F23FB187F210A401A70A2
:40098000FB1D1B78DB01D9B20F23FB180F22BA1812780A431A70044B0F22BA1812781A60BD4604B080BDC0460003044080B500AF064B00221A70064B00221A70054B002295
:4009C0001A7000F009F8BD4680BDC046CB200020C4200020CA20002080B500AF00F0F0FBBD4680BDB0B594B004AF78603E23FB1800221A802823FA183E4B111C1A1C14233A
:400A0000081C111C1A1C01F070FE3B4B1B78002B04D1FFF7CBFF384B01221A707B68002B5CD0364B7A681A603E23FB181B88002B29D11023FB181C22BA185A601023FB181E
:400A40002022BA181A601023FB1800221A812023FB181B221A802023FB181B225A802023FB1804221A711C23FB1800221A703E23FC181023FA180E23FB18101C191C01F0F6
:400A800061FF031C23803E23FB181B88002B29D13E23FC181A481B49AE231A012823FD180523009300230193002302932B1C01F0A5FE031C23803E23FB181B88002B11D166
:400AC000114B01221A703E23FC18104B181C0E2109220EF039F9031C238003E03E23FB1801221A803E23FB181B88181CBD4610B0B0BDC0466C3B0100A80F0020BC2000208D
:400B00005D0E0000C8000020C2200020883B010080B500AF01F044FE024B00221A70BD4680BDC046C220002090B585B000AF021CFB1D1A70FB1D1B78022B04D90E23FB1862
:400B400001221A804BE0294B1B78042B42D1284B1B78DBB21A1C042313403BD1FB1D1B78002B0BD1234B1E221A82224B5B6820221A80204B5B6830225A8010E0FB1D1B78F8
:400B8000012B0CD11B4B96221A821A4B5B68C822D2001A80174B5B688022D2015A80164BFA1D12781A700E23FC18124B181C0CF0F9F9031C23800E23FB181B88002B08D183
:400BC0000B4B1B78DBB204221343DAB2084B1A7005E004E00E23FB180422FF321A800E23FB181B88181CBD4605B090BDC2200020CB200020000C0020CA20002080B584B0D0
:400C000000AF78600A1CFB1C1A700023BB60BB68002B20D07B689A79BB681A700F23FB1800221A7012E00F23FB181B780133BA68D3180F22BA18127879688A5C1A700F233B
:400C4000FB181A780F23FB1801321A700F23FB181B78052BE7D9BD4604B080BD80B582B000AF78607B681B789AB27B6801331B789BB21B029BB213439BB2181CBD4602B074
:400C800080BDC04690B585B000AF78600F23FB1800221A707B689B890B22934237D17B681A1D7B680F217C18101C00211A1C40230EF062F8031C23700F23FB181B78002B3A
:400CC0001DD17B685B68181CFFF7C8FF031C1A1C022313409BB2002B08D0104B1B68822251007A68081C111C984708E00B4B1B680622FF32111C7A68081C111C9847084BC1
:400D00001B78DBB201229343DAB2054B1A700F23FB181B78181CBD4605B090BDBC200020CB20002090B585B000AF78600F23FC187B68181CFFF7A6FF031C2370144B1B787F
:400D4000DBB21A1C012313401FD10F23FB181B78002B16D00823FB1812229A707B689A890823FB181A800823FB180F22BA181278DA707B680822BA181868111C0DF042FA2C
:400D800003E07B6818680DF0BFFABD4605B090BDCB20002080B582B000AF7860BD4602B080BDC04680B500AF044B00225A70034B00221A7000F008FABD4680BDC8200020EE
:400DC00080B582B000AF7860BD4602B080BDC04680B500AFBD4680BD80B584B000AF78600E23FB1800221A707B689B79002B1CD10F23FB1800221A7012E00F23FB181B783F
:400E00007A68D35C002B04D00E23FB1801221A700BE00F23FB181A780F23FB1801321A700F23FB181B78052BE7D90E23FB181B78181CBD4604B080BD80B582B000AF021CF2
:400E4000BB1D1A80BD4602B080BDC04680B582B000AF7860BD4602B080BDC04680B588B000AF021C3960FB1D1A70C64B1B78DBB201221343DAB2C34B1A70FB1D1B78712B98
:400E800000D963E19A00C04BD3181B689F461023FB1807221A701023FB1800225A701023FB18181C03F0A6FC1023FB1807221A701023FB1801225A701023FB18181C03F04A
:400EC00099FCB24B1B68181CFFF786FF031E11D0AE4B1B68181C01F051FCAC4B1B68181C0021FFF78BFEA94B1B68181C0121FFF785FE36E0A64B1B781A1C3F231A40A54B2E
:400F00001B78191C3F230B409B011A43A24B1B78191C1F230B401B031A43A04B1B78191C7F230B405B041343BB61BB69DAB29C4B1A70BB691B0ADAB2994B5A70BB691B0C26
:400F4000DAB2974B9A70964B181C01F017FC944B181C0021FFF752FE914B181C0121FFF74DFE03200BF0CEFE0C23FB183F221A700C23FB1800225A700C23FB18181C0BF03D
:400F8000DFFE884B04221A70E1E03B68181CFFF717FFDCE03B681A78834B1A70D7E03B687B617B691B78002B18D17B695B78002B0BD17E4B0022DA807C4B00229A807B4B57
:400FC0007B4A1A607B69794A5A606E4B1B78DBB201229343DAB26B4B1A70B8E0B7E0694B1B78DBB21A1C2023134016D1714B1B78102B02D16F4B0522DA706F4B1A786D4B71
:40100000101C191C0BF08EFF5E4B1B78DBB201221343DAB25B4B1A7099E098E03B68181CFFF714FF93E03B68181CFFF70FFF5D4B02221A708BE05B4B04221A7087E0594B88
:401040001B78022B34D04F4B1B78DBB21A1C012313402DD04B4B1B78DBB21A1C042313400BD0504B03221A70464B1B78DBB204229343DAB2434B1A701AE0424B1B78DBB2C5
:401080001A1C082313400BD0464B04221A703D4B1B78DBB208229343DAB23A4B1A7007E0404B1B78032B03D13E4B04221A704EE04DE03B681B88181CFFF7BEFE47E03E4AA7
:4010C0003B68111C1A1C0223081C111C1A1C01F00CFB354B00221A70FFF77AFE37E0FFF761FE34E03B685B88162B05D81E23FB183A6852881A8003E01E23FB1817221A8014
:401100003B681E22BA1811881A8800231204120C1B0C1B041343181C0DF07EF817E03B68181CFFF7FFFD12E0164B1B78DBB21A1C0123134004D03B68181C00F061F806E06B
:4011400005E03B68181CFFF725FE00E0C0460D4B1B78DBB21A1C112313400FD0094B1B78DBB201229343DAB2064B1A70134B1B68FA1D11783A68081C111C9847BD4608B0BE
:4011800080BDC046CB200020A03C01001C0C00207CF1FF0F7DF1FF0F7BF1FF0F78F1FF0F140C0020C2200020C4200020AC0F0020A80B0020680C0020C8200020BC20002048
:4011C00080B500AFBD4680BD80B584B000AF0F23FB1800221A700E223B1C1A813B1C0F22BA181A603B1C01229A803B1C181C0021002200230DF0C0FDBD4604B080BDC04693
:4012000080B584B000AF78601F4B1B68002B37D00E227B689B899A4232D17B681B89012B2ED17B685B681B78022B29D87B681A1D7B68101C00211A1C40230DF09DFD031ED5
:401240001ED10823FB187A6812881A800823FB1800229A707B681A1D0823FB185A600A4B1B68D82251000822BA18081C111C9847064B1B78DBB201229343DAB2034B1A7092
:40128000BD4604B080BDC046B40F0020CB20002080B500AF074B02221A60074B802212061A60064B00221A60054B03221A60BD4680BDC046BC0F00200000304004003040FB
:4012C000080F304080B500AF054A054B1968054B1B680B43802109010B431360BD4680BD04003040BC0F002080B500AF064B1B78002B04D1FFF7CCFF034B01221A70FFF7BD
:40130000E1FFBD4680BDC046B80F002080B500AF034B034A126803490A401A60BD4680BD04003040FCF7FFFF80B500AF074B1B680322134005D0064B01221A70FFF7E6FF13
:4013400002E0034B00221A70BD4680BD04003040C00F002080B500AF034B1B78002B01D0FFF7B0FFBD4680BDC00F002080B500AF064B1B78002B04D100F00AF8034B01222E
:401380001A7000F0E7F8BD4680BDC046C40F002080B584B000AF0F20032100F0C3FA544B0F20191C00F098FA524B01221A60524B1B68002B01DA514900E05149514B514A53
:4013C00012680A431A60504B504A1A60504B514A1A60514B00221A60504B514A1A60514B4F4A1A60504B504A1268802149020A431A604E4B00221A604D4B00221A604D4B53
:4014000001221A604C4B1B687B607B684B4A13407B607B688022920513437B607B68012293437B60444B7A681A600023FB6059E00022DC239B0113407B60FB689B00404A5B
:40144000944663447A681A6000220123134009D0364B364A1268F96801208840011C89B20A431A6000220223134009D0304B304A1268F96801208840011C89B20A431A60EE
:40148000002280239B00134003D080235B00BB6002E080235B01BB60002280235B00134005D1284BFA6852000021D15204E0254BFA6852000021D152BB68234A53438022C9
:4014C000D20094466344002B02DA204A94466344DB129BB219B21E4BFA689200D150FB680133FB60FB68002BA2D0BD4604B080BD2917000020003A4080033A40C002105144
:40150000C002005100003A4004003A408C000A8018003A400000FF071C003A4010003A400400040014003A4000033A4028023A4038023A4018023A4030003A40FFFFFFDF4D
:4015400080003A40D020002010270000FF070000CC20002080B500AF0A4B1B68002B0EDBC046094B1B68002BFBDB064B054A1268802109060A431A600A2000F045FABD467D
:4015800080BDC04600003A4008023A4080B500AF034B034A1268520052081A60BD4680BD00003A4080B500AF024B01221A60BD4680BDC04624003A4080B500AFBD4680BD3B
:4015C00080B584B000AF78600023FB607B680322134011D00B4B1B6801221340FB60FB68002B03D17B6802221340F3D1FB68002B02D0044B01221A60FB68181CBD4604B07D
:4016000080BDC04610023A4080B584B000AF78607B68002B02D0002000F0ECF97B68002B09D17B689B00084A944663441B681B041B0CFB6001E00023FB60FB689BB21BB2DD
:40164000181CBD4604B080BD80013A4080B500AF1A4B1A4A1268802109060A431A60184B1B68002B24DA174B1A6880235B02134003D0154B03221A7002E0134B01221A7094
:40168000FFF79AFFFFF782FF0D4B1A6880235B03134010D00A4B0A4A12680C490A401A60094B1B7804221343DAB2074B1A7002E0054B00221A70BD4680BDC04630003A4041
:4016C00000003A4004003A40C80F0020FFFFEFFF80B500AF114B114A1268520052081A600F4B1B78002B16D00D4B1B781A1C0423134006D00B4B0B4A1268802149030A4306
:401700001A60FFF727FF064B1B781A1C0223134001D0FFF747FFBD4680BDC04630003A40C80F002000003A4080B582B000AF044B1B687B60024B7A681A60BD4602B080BDB5
:4017400010023A40000000000230800803D00138FDD1C046C046C0467047EFF3108072B6704780F31088704790B585B000AF78600F23FC18FFF7F1FF031C2370094B7A6858
:4017800007210A40D104074A1268074802400A431A600F23FB181B78181CFFF7E2FFBD4605B090BD00010B40FFFFC7FF90B58BB000AF78602723FC18FFF7CFFF031C2370EC
:4017C000184B1A680C23FB181A60174B1A680C23FB185A607B68033B144AD35C1A1C0C23FB189A60124B1A680C23FB18DA601C23FB18104A1A600C23FA181C23FB185A607A
:401800000D4B1C22BA181A600C4B0D4A1A600A4B1B682723FB181B78181CFFF7A2FFBD460BB090BD08010B4000010B40683E010030001040B6EA00000800104004001040ED
:401840001700008080B584B000AF78600023FB60154B154A126801210A431A60134B144A1A60144B134A1268802109020A431A607B68002B12D01023FB600CE0012000F0E7
:40188000C3F800F019F8031E02D00023FB6005E07B68013B7B607B68002BEFD1FB68181CBD4604B080BDC04660F02E4078002E400220000010002E4080B582B000AF054B13
:4018C0001B68012213407B607B68181CBD4602B080BDC0460C002E4080B584B000AF021C3960FB1D1A7080239B05FB60FB1D1B781F2B02D9002000F07DF8FB1D1B78103339
:401900009B00FA68D3181B68BB60FB1D1B7810339B00FA68D3183A681A60BB68181CBD4604B080BD90B587B000AF021CFB1D1A70BB1D0A1C1A70BB1D1B78032B02D90020DD
:4019400000F058F8FB1D1B781F2B02D9002000F051F8FB1D1B7803221340DB0006337B611323FC18FFF7F9FE031C2370FB1D1B789B08DBB29B00144A944663441B68FB60CF
:401980007B6903229A40131CDA43FB681340FB60BB1D1A787B699A40131CFA681343FB60FB1D1B789B08DBB29B00074A94466344FA681A601323FB181B78181CFFF7D1FE84
:4019C000BD4607B090BDC04600E400E080B582B000AF021CFB1D1A70054BFA1D12781F210A40012191400A1C1A60BD4602B080BD00E100E080B582B000AF021CFB1D1A70A9
:401A000001BEBD4602B080BD80B582B000AF021CBB1D1A80BB1D1B88044A12785343181CFFF792FEBD4602B080BDC046780C002080B500AF154B154A1268920092081A604D
:401A4000134B134A1268920092081A60114B114A1268920092081A600F4B0F4A1268920092081A600D4B0D4A1268920092081A600B4B0B4A1268920092081A60094B094AA0
:401A80001268920092081A60BD4680BD0800044008010440080204400803044008040440080504400806044090B583B000AFFC1DFFF753FE031C2370074B074A1268042122
:401AC0008A431A6030BFFB1D1B78181CFFF749FEBD4603B090BDC04610ED00E090B583B000AFFC1DFFF739FE031C2370114B114A1268520052081A600F4B104A128892B2A6
:401B00001A600F4B0E4A126804210A431A600D4B1B683B600220FFF727FE30BF094B3A681A60FB1D1B78181CFFF71BFEBD4603B090BDC04600000B400C000B4052F1FF0F17
:401B400010ED00E000010B4090B583B000AFFC1DFFF703FE031C2370FFF76AFF114B114A1268802109060A431A600F4B0F4A128892B21A600E4B0E4A126804210A431A602A
:401B80000C4B0C4A1268FF218A43F1210A431A6030BFFB1D1B78181CFFF7E3FDBD4603B090BDC04600000B400C000B4050F1FF0F10ED00E02C000B4080B500AF0E4B0E4AB1
:401BC000126801218A431A600B4B0B4A126802218A431A60094B094A126830218A4310210A431A60054B054A126807218A4301210A431A60BD4680BD00F02E4000FF2E403A
:401C000080B500AF0E4B0E4A126802218A431A600C4B0C4A126807218A4302210A431A60084B084A126830218A4320210A431A60034B034A126801210A431A60BD4680BDA2
:401C400000F02E4000FF2E4080B500AFFFF7B4FF044B044A1268802109060A431A60BD4680BDC04600F02E4080B584B000AF78600C4B1B6801221340FB607B68002B02D05F
:401C8000012B03D005E0FFF797FF06E0FFF7B8FF03E00020FFF7AEFEC046FB68181CBD4604B080BD00F02E4090B583B000AFFC1DFFF753FD031C2370074B074A1268C02157
:401CC00009020A431A60FB1D1B78181CFFF749FDBD4603B090BDC04600010B4080B500AF054B1A68C0231B02134001D0012300E00023181CBD4680BD00010B4090B583B069
:401D000000AFFC1DFFF729FD031C23700C4B0C4A12680C490A408021C9010A431A60084B074A126807490A40802109020A431A60FB1D1B78181CFFF714FDBD4603B090BD01
:401D400000010B40FF3FFFFF80B582B000AF78607B68022B02D90020FFF74CFE054B1B687A68D2000132D34001221340181CBD4602B080BD10020B4080B584B000AF7860EC
:401D800039607B68022B02D90020FFF733FE7B68181CFFF7D9FF031E15D10C4B1B687A68D200111C03228A40D2431340FB603B68032213407A68D2009340FA681343FB604A
:401DC000024BFA681A60BD4604B080BD0C020B4080B584B000AF786039607B68002B02D07B68012B01D1012300E00023002B02D10020FFF7FFFD7B68181CFFF7A5FF031E1A
:401E000016D10D4B1B687A68D2000232111C01228A40D2431340FB607B68DB0002331A1C3B689340FA681343FB60034BFA681A60BD4604B080BDC0460C020B4080B582B085
:401E400000AF7860144B144A11687A680A431A607B680122134005D0C0460020FFF774FF031EFAD07A6880235B00134005D0C0460120FFF769FF031EFAD07A6880235B02FA
:401E8000134005D0C0460220FFF75EFF031EFAD0BD4602B080BDC04610020B4080B584B000AF786039607B68002B02D07B68012B01D1012300E00023002B02D10020FFF7BA
:401EC00099FD174B1B689B0F9B0701D1C92300E05D23181CFFF798FD124B1B68FB607B681B011A1C104B9340DA43FB681340FB600C4B7A681201111C3A688A40111CFA68FE
:401F00000A431A60064B1B689B0F9B0701D1432300E01F23181CFFF777FDBD4604B080BD0C020B4008020B40FFFF000090B585B000AF78600B23FC18FFF70FFC031C23702C
:401F4000FFF7CCFE031E04D00123FB60FFF7D6FE01E00023FB607B680D4A13407B600D4B0C4A12680C4911407A680A431A60094B1B68FB68012B01D1FFF796FE0B23FB1822
:401F80001B78181CFFF7EDFBBD4605B090BDC0460404040010020B40FBFBFBFF80B582B000AF78600A1CBB1C1A80BB1C1A887B681A60BD4602B080BD80B582B000AF7860DD
:401FC0000A1CBB1C1A80BB1C1A887B681A60BD4602B080BD80B584B000AF494B1B78DBB21B02484A1278D2B21343FB60464B1B78DBB21B02454A1278D2B21343BB60BB6849
:40200000434A934207D1FB68072B04D1414BBB600423FB6009E0BA68D4231B019A4204D1FB68042B01D13B4BBB603B4BBA681A603A4BFA681A603A4B1B78DBB21B02394A37
:402040001278D2B21343FB60FA6880239B019A4202D0FB68002B01D1334BFB60334BFA681A60334B1B78DBB21B02324A1278D2B21343FB60FB68304A934206D0FB682F4A65
:40208000934202D0FB68052B01D12D4BFB602D4BFA681A602C4B1B681B097B602B4B1B68AA2B29D17B68012B26D9214B1B78DBB20E2B21D1264B1B78DBB29BB21B0299B221
:4020C000244B1B78DBB29AB2BB1C0A431A80224BBA1C12881A60214B1B78DBB29BB21B0299B21F4B1B78DBB29AB23B1C0A431A801C4B3A1C12881A60BD4604B080BDC046D0
:40210000D9F0FF0FD8F0FF0FDFF0FF0FDEF0FF0F580B0000580D00006C002E4074002E40DBF0FF0FDAF0FF0F0220000078002E40DDF0FF0FDCF0FF0F0F0F0000050500001F
:40214000050F000080002E40EC0F00F0E00F00F06DF2FF0F6CF2FF0F84002E406FF2FF0F6EF2FF0F94002E4080B582B000AF021CBB1D1A80BB1D1B88181CFFF745FCBD465A
:4021800002B080BD80B500AF00F0DEF8BD4680BD80B500AF00F0E2F8BD4680BD80B500AF00F0DCF8044B181C00F09CF8032000F0A5F8BD4680BDC0467123000080B500AF3B
:4021C000024B181C00F07CF8BD4680BD7123000080B500AF0223FF33181CBD4680BDC04680B582B000AF78602B23181CBD4602B080BDC04680B582B000AF78602B23181C99
:40220000BD4602B080BDC04680B582B000AF78602B23181CBD4602B080BDC04680B582B000AF78602B23181CBD4602B080BDC04680B582B000AF78602B23181CBD4602B0B1
:4022400080BDC04680B582B000AF78602B23181CBD4602B080BDC04680B582B000AF78602B23181CBD4602B080BDC04680B582B000AF78602B23181CBD4602B080BDC046E3
:4022800080B500AF2B23181CBD4680BD80B582B000AF021CFB1D1A702B23181CBD4602B080BDC04680B582B000AF786039602B23181CBD4602B080BD80B500AFBD4680BD09
:4022C00080B582B000AF786000F048F87B68181C00F008F8032000F011F800F035F8BD4602B080BD80B582B000AF7860024B7A681A67BD4602B080BD0000002090B585B064
:4023000000AF021CFB1D1A700623FB600B23FC18FFF723FA031C23700A4B0A4A1268C0218A43111CFA1D1078FA689040021C0A431A600B23FB181B78181CFFF712FABD46E2
:4023400005B090BD0CE400E080B500AF024B802252011A60BD4680BD00E100E080B500AF024B802252011A60BD4680BD80E100E080B500AF11F0D0FBBD4680BD002243086C
:402380008B4274D303098B425FD3030A8B4244D3030B8B4228D3030C8B420DD3FF22090212BA030C8B4202D31212090265D0030B8B4219D300E0090AC30B8B4201D3CB0377
:4023C000C01A5241830B8B4201D38B03C01A5241430B8B4201D34B03C01A5241030B8B4201D30B03C01A5241C30A8B4201D3CB02C01A5241830A8B4201D38B02C01A5241A2
:40240000430A8B4201D34B02C01A5241030A8B4201D30B02C01A5241CDD2C3098B4201D3CB01C01A524183098B4201D38B01C01A524143098B4201D34B01C01A52410309AF
:402440008B4201D30B01C01A5241C3088B4201D3CB00C01A524183088B4201D38B00C01A524143088B4201D34B00C01A5241411A00D20146524110467047FFE701B5002006
:4024800000F0FCF802BDC0460029F7D003B5FFF775FF0EBC4243891A1847C04603460B437FD4002243088B4274D303098B425FD3030A8B4244D3030B8B4228D3030C8B42F1
:4024C0000DD3FF22090212BA030C8B4202D31212090265D0030B8B4219D300E0090AC30B8B4201D3CB03C01A5241830B8B4201D38B03C01A5241430B8B4201D34B03C01A4A
:402500005241030B8B4201D30B03C01A5241C30A8B4201D3CB02C01A5241830A8B4201D38B02C01A5241430A8B4201D34B02C01A5241030A8B4201D30B02C01A5241CDD29F
:40254000C3098B4201D3CB01C01A524183098B4201D38B01C01A524143098B4201D34B01C01A524103098B4201D30B01C01A5241C3088B4201D3CB00C01A524183088B42C7
:4025800001D38B00C01A524143088B4201D34B00C01A5241411A00D201465241104670475DE0CA0F00D04942031000D34042534000229C4603098B422DD3030A8B4212D38F
:4025C000FC22890112BA030A8B420CD3890192118B4208D3890192118B4204D389013AD0921100E08909C3098B4201D3CB01C01A524183098B4201D38B01C01A5241430947
:402600008B4201D34B01C01A524103098B4201D30B01C01A5241C3088B4201D3CB00C01A524183088B4201D38B00C01A5241D9D243088B4201D34B00C01A5241411A00D2D6
:402640000146634652415B10104601D34042002B00D54942704763465B1000D3404201B5002000F00BF802BD0029F8D003B5FFF715FF0EBC4243891A1847C0467047C046C6
:402680000E4B70B500251E1C0D4CE41AA410A54204D0AB00F35898470135F8E711F0FCFB084B00251E1C084CE41AA410A54204D0AB00F35898470135F8E770BDA43E010028
:4026C000A43E0100A43E0100AC3E010030B50024944208D0035D651C0C5DA34201D0181B02E02C1CF4E7002030BD002310B5934203D0CC5CC4540133F9E710BD031C8218C3
:40270000934202D019700133FAE77047134A1088810703D08107890F401A001D11791030484381B25088820703D08207920F801A001D800040180A494030098980B2CA07E9
:4027400001D0503080B2890706D504495422091F09785143081880B270470000860C0020CC0F002010B501F06FFF10BD10B501F081FF10BD10B500F061FA10BD10B50749CF
:40278000044609780220002907D1204601F0CFFF002802D120460AF0ABFB10BDF00D002010B507F0A7FB01F065FF01F0B3FF00F04FFA00F067FA02490020087010BD00008B
:4027C000800C002070B504460120002C12D02368002B0FD0616800290CD0074D06222889208118462968FFF780FF6968606809780170002070BD0000CC0F0020FFB585B03E
:40280000002768460E9D07734C481C460078002802D0082009B0F0BD10990F9801900095029105A807C800F0FBF80028F2D16946264603AB84460873002C19D0002115E01C
:402840008A00B75A082F09D990198078002805D0083FB7521878401C187005E0002915D00027B75290198770491CC9B2A942E7D360460028CED10F9800280AD0109901F04A
:4028800095FA0006000E04D00120C3E701208446EEE701F0EFFE2948002101610C300599016021888180022D03D3A1798171A17AC17100211EE0481C19E082008B00A75A77
:4028C000E65ABE46BE4211D26F463E80B4461E190296B678BE7001967646E6521719029EBB78B3706646A652019EBE70401CA842E3D3491CA942DED3114800906846037BE5
:4029000022460799069800F013F9002882D168460A4C007B60700A4801F0DCFE0028B4D1204607490C3007F0C7FA0028ADD107F0E9FA0028A9D1012121706BE7800C0020E4
:40294000CC0F0020F8B5054633480E460078002802D002242046F8BD002E5BD000242F49002D16D02A89D0070DD02868002808D003881B3BE12B04D24088FB2801D81B2819
:4029800001D2012409E0900707D56868002804D1F7E70020088108604860002CDAD11F482F8907811C481B21801D018041800421017119490020891C0870F80705D01648FA
:4029C0000622801D2968FFF790FE1449B80703D56A681148127882700F480D46801D0860001F486001F0C8FE0B48801D01F0B6FE28890DF093FA28890DF00CFC0346103323
:402A0000FFF784FE1F21C018890140180249308088809FE701249DE7800C0020CC0F0020FFB58446384F1C460020BB883F78054602460646002F11D100290ED0029999425D
:402A40000BD36146002908D0002C06D00A99002906D02E4B0B99994202D2012004B0F0BD002144E0AB001F19BF78002F3BD0E35A002B38D07B43591889B22B0000F04AF80E
:402A8000050410161C253100A7782388BC46FF27233BEB37BB4222D26346032B1FD322E0A388002B1FD0302B19D31CE02389002B19D0282B13D316E0A289002A13D013463F
:402AC000134F233BBB420AD20DE0268A002A0AD033460F4F233BBB4201D2964203D901200EE0002001E000280AD16D1CEDB2099B9D42B7D31C2463435B1802998B42ACD856
:402B00009642AAD8AAE70000800C002079020000BAFF000030B47446641E2578641CAB4200D21D46635D5B00E31830BC18470000FFB583B0002469460C801F4606468C8007
:402B4000002806D00598002803D004983043800701D0012467E0002FFBD03449049809888842F6D3FFF72AFBFFF712FB00F06CFC002856D100F0CAFD002852D12C4908462B
:402B800001F048F905042D0C4BD12A480499066081800021C18007810C98007AC00704D0684601F080FD040007D10C98007A800703D501A801F080FD0446BF1DFEB2002CDE
:402BC00021D13146059800F089F804001BD10DF02FFB0406240E16D16A461088928808368518144AF1B29088D288AEB29319984207D3401B801A80B201F0FEFB050007D0C7
:402C000000E0FF25012400F0B7FA002D04D008E0F8B200F047F9F6E700F0DAFA06490120087000F023FC204607B0F0BD840C0020C92D0000D80F0020940C002010B5034828
:402C40000078012801D101F079FA10BD940C002010B500F0F9FD002803D100F00BFC002801D0FF2010BD0548007A801DC0B200F031F9034A0020107010BD0000D80F0020BC
:402C8000940C002010B500F0FBFD01F0F5F80449002008608880C88008810249087010BDD80F0020940C002070B5084B0446DA889E8800205518B54206D81D68AA1822604F
:402CC000DA885118D98070BD032070BDD80F00200148008970470000D80F0020F0B587B007460D4600208900009006916846FFF7DBFF844600285DD130480099016000211F
:402D000017E02E4B88001A680629115406D22C4C0419667882185670628805E0C419203CA67A8218567022891B68C018491C4280C9B2A942E5D300242DE0601CC2B2059051
:402D400025E01E4FA30039689600581840887118039604904E88B04217D938466F46FE80B6464F786E4677710297049F4F800168039F5E18767879184E70016876465918F2
:402D80004E800068029F18184770521CD2B2AA42D7D30598C4B2AC42CFD36046002809D168460699FFF780FF8446002802D1054900980860604607B0F0BD0000980C0020DF
:402DC000D03E01009C0C00207047000010B5002809D005494A68002A05D0011F08788000105801F0B7FA10BD980C002010B50446FFF76EFFC0B2801DA0420CD3074840688C
:402E0000002808D0A100405801F016FA002801D00470001D10BD002010BD0000980C0020F8B516460D460446FFF752FFC0B2801DA04203D20020C0430090F8BDB2B2E9B236
:402E4000684601F01FFA0099481C03D0024AA000526811500098F8BD980C0020F8B50746FFF736FF801DC6B20A49002005460C680DE06178002907D06188B94202D320782F
:402E8000FFF7B4FF002804D1241D6D1CEDB2B542EFD3F8BD980C002010B5002801D0FFF795FF10BD70B506460948002504680BE06178002905D062882078121D0023FFF7DD
:402EC000AFFF241D6D1CEDB2B542F1D370BD0000980C0020F8B5084F064600243D6808E0287879688000085801F0E0FA2D1D641CE4B2B442F4D3F8BD980C0020FFB581B067
:402F00000A9C16002BD000F0F1F80546042826D0214F002C0BD02046FFF7A0FF2901C919486000281BD022460499FFF7DEFB1A4928010E5046187481019805707D20029C01
:402F4000C000444300F0C0F8009004280AD000F071FAA0420ED800F06DFA201A06E0FF2005B0F0BD204600F0CBFA0020B08135720020F5E700F05EFA074600F0D7FA381BF9
:402F800087B23846012100F00BF900980101024808188781E6E70000E40F0020F8B5060117483418217A042903D0A089002802D018E00020F8BD00F03DFA054600F0B6FA5C
:402FC00000F0A2F804280DD001010D480F18B88941198DB2002100F0E3F80020B881284600F08EFA6068064D002801D0FFF754FF042020720020A8516081A081D9E70000CD
:40300000E40F0020FEB500266A46304601232549050169180D7A042D02D0898900291BD000211154401CC0B20428F0D300246846005D002830D01B482101081841894768FD
:40304000056802910021016041600422418102728181002E02D015E01354E3E700F054F804280ED001010F480818019086890021304600F095F8019800218181304600F014
:403080003FFA0126002D07D038460299A847002F02D03846FFF700FF641CE4B2042CC6D3FEBD0000E40F00200EB5002005216A460090118150810348694600680DF059FF20
:4030C0000EBD0000A00C0020074A0020010189180B7A042B02D08989002903D0401CC0B20428F3D370470000E40F00200549002002015218127A042A03D0401CC0B20428A5
:40310000F6D37047E40F002030B50A4B04200A4C00210A011219157A042D06D09289002A03D09A4201D808461346491CC9B20429EFD330BDFFFF0000E40F00207047000063
:40314000F8B500250B4F2E462801C419217A04290AD0042121723E506068002802D0FFF79BFE66606681A6816D1CEDB2042DEBD3F8BD0000E40F002030B50020074C05461A
:403180000423020111190B72A5504D60401C4D81C0B28D810428F4D330BD0000E40F002030B5094C00231A011219157A042D04D09589002906D02D1895815B1CDBB2042B1D
:4031C000F1D330BD2D1AF7E7E40F0020002070471CB5002469460C70142001902346054A05480DF0CBFE04480068401C00D1FF2420461CBD4D320000A00C00203EB5124A82
:403200000146FF2000230124126800290DD0012914D0042908D104206946009308814B8110460DF0A6FE80B23EBD6846009304814381694610460DF097FEF4E76846009330
:40324000048143816946EBE7A00C002070B545890468416800890300FFF75CFC08280509091E22282628002005F038FD1EE0022908D0C8B22A4621460BF0DCFF2046FFF70B
:403280000BFE13E002202A4621460BF0D3FF2946204600F00DF809E000200DF051FB05E02046FFF7AFFE01E0FFF706F8002070BD014B0022DB681847A40C002070B544894E
:4032C00005680089022803D0032809D0FF2070BD2246094C0023A46829460120A04708E0FFF744FA241DA2B200232946022006F094FC002070BD0000A40C002070477047B2
:40330000024800214160018041807047A40C002070B50C46002186B016460391012802D0022859D116E003A9012006F0D6FC01281BD1039D324621462846FFF7D6F90095C4
:40334000287801900220694608814E816846FFF7B5FF41E0214D002B686809D0049004A9022006F0BAFC01281DD0022006B070BD002812D0298840182146FFF7B6F928883F
:403380000024801980B228806988091D884206D12C801348FFF792FF03E00320E6E788421AD96C6018E004986860E278A378110219430B4A698000231060E35653600323B1
:4033C00013815181A1788170E178C1706178417021780170042028800020C7E7A40C0020241000203EB515460C46022803D004280CD000203EBD0091019002206946088145
:4034000007484A8100680DF0B4FD07E00BF012FF044B0022DB6829462046984701203EBDA00C0020A40C0020014AD16090607047A40C0020034801688068081A0A214843E2
:40344000000970473010002010B5FEF7A7FE482204490548FFF749F903490120C870002010BD0000EC3E01003414002010B5FEF789FE10BD0020704770B5134C2368002B4D
:4034800008D0207B1149C20705D04008400020738868A08070BD88680B4AA18880B29268814203D90A4D691A091802E0814202D2411A5118A160A080A0689842EAD30DF01B
:4034C00075FD00F013F870BD30100020C0102E40FFFF000010B508461946FFF7A5FF10BD704710B5FFF77EFF10BD000003480021016041608160C16070470000301000207A
:40350000024610B5FF20002A0CD0FFF7EFFF064C0321207B0843207310010A21FEF7B4FF2060002010BD00003010002000B504480A21806848430209FFF7D8FF104600BD4B
:40354000301000200248007B8007C00F704700003010002010B544490868002802DA434B01221A70022290430860414800693E49C00B4031096A08425ED0012000F0D0FADE
:403580003B483C497C30FEF717FD37480E216C30FEF712FD364820218430FEF70DFD344814219C30FEF708FD3148FF21C131A430FEF702FD2E48FF212F31B030FEF7FCFC01
:4035C0002B482D49BC30FEF7F7FC29482B49AC30FEF7F2FC29492648491CB430FEF7ECFC23482749B830FEF7E7FC21482549CC30FEF7E2FC1E4824490830FEF7DDFC1C48E6
:403600002249A830FEF7D8FC194821498830FEF7D3FC17481F498C30FEF7CEFC14481921C9029030FEF7C8FCFEF7D4FCFEF7D0FDC0B2022802D00FE0FF2010BD164917488D
:40364000FEF7BAFC15481649001DFEF7B5FC134800210830FEF7B0FC54200449C043891C0870002010BD000000F02E40B40C002000002E4055650000320300002F3F0000F4
:403680003102000010520000EC160000FA12000031D000003AE300009956000080012E40F80F000070B50646581C80B245086D00002408E0304600F0C1F81055000A1119CF
:4036C000A41C4870A4B2AC42F4D3D80705D0D0182038D15CC47FD454C17770BD30B50A4C002100195B1E07E0541864782502545C2C430480891C89B29942F5DB994201D137
:40370000515C018030BD000000102E4010B5FF2000F006FA0F49FF2048700E481021801D41800121417001700A490020C91C4870FFF710FF04000AD100F01AF90721064857
:40374000FEF72CFC044807211830FEF727FC204610BD0000B40C0020CC112E4070B5002405465B1E0AE0284600F068F8010A161971702D1D1055A41CADB2A4B29C42F2DB5B
:403780009C4203D1284600F059F8105570BD000070B500210A4D5B1E0AE0541864782602545C344346193480001D891C80B289B29942F2DB994202D1515C4019018070BD33
:4037C00000102E40F0B50599091FCFB200217E1E0BE0541864782502545C2C43164D45192C80001D891C80B289B2B142F1DBFC0712D01C78515C24020F4A0C4381180C80B5
:403800009C785D78001D210280B2294384182180001D80B2D9780CE059781A7809021143054A84182180001DD9789B78090280B2194380180180F0BD00102E4001494018AA
:403840000088704700102E4010B50B490020487000F08EF8002000F089F9002000F076F907210648FEF79AFB044807211830FEF795FB002010BD0000B70C0020CC112E40B7
:4038800010B506480078012803D102210448FEF793FB02490020C91E087010BDB70C002070F02E4010B50B46062812D006DC01280CD0032801D1FFF7C7FF10BD0A28FCD0B5
:4038C0000B28FAD105480078107010BDFFF71EFF10BD1146184600F065F910BDBA0C0020F8B5204DAC6A0127A0071F4E002816DA307806280ED1286A384328621B48006986
:40390000F903084381B219481030FEF755FB042000F006F9134802212830FEF73FFBE00711D0062000F0FCF80F49FF20C91E48707078002802D1686B3843686309480121B8
:403940002830FEF72BFBE0050BD53078042802D1052000F0E5F80348FF2101312830FEF71DFBF8BD40F02E40B70C002000002E4010B503212348FEF71FFB0120FEF7F4FB68
:4039800020483038406A204C80076178800F890001431C480C38FEF70FFB6078002808D0401E022181401820FEF75EFEC000083800E0B82081B21548FEF7FEFA1348032167
:4039C00009021438FEF7F8FA10481149B830FEF7F3FA612189010F48FEF7EEFA0D480321001FFEF7E9FA0C490C48FEF7E5FA0B480B496038FEF7E0FA084801218838FEF7AB
:403A0000DBFA10BD70F02E40BA0C0020D8102E4090890000041E2E40FF0F000058122E4020900000044800684007400F022801D0002070470120704700010B4000B5FFF7B0
:403A4000F1FF002805D009480168C908C900016000BD0748016A490849000162054801690122D2039143016100BD000000010B4040F02E4000002E400849087806280BD15B
:403A800048780749002803D1486B400840004863C86A01221043C86270470000B70C002040F02E400148007870470000B70C002002484078022800D001207047B40C0020FB
:403AC00000B50300FFF726F8080D050D0B070507090D012000BD032000BD042000BD022000BDFF2000BD0000074A9168D26889B2064B92B2994204D105498A4201D1012133
:403B000000E000210170704780002E4033D000003FE300000149487070470000B70C002010B50446FEF734FB072C01D9FF2C01D102480470FEF726FB10BD0000B70C0020EC
:403B40000149487070470000B40C002010B5064A012805D01921C9021046FEF72DFA10BD1D21C902F8E7000090002E4010B50A4A141D012808D009491046FEF71DFA08491F
:403B80002046FEF719FA10BD04491046891CFEF713FA0349491DF3E788002E4031D000003AE3000070B50C460546FEF711FBC0B202280E49287804D0FF2810D04C280CD857
:403BC00010E0FF2809D10A4AD0680004800F032801D0087807E09069000A553803E00878207070BD4F382070087070BDB60C002000002E40F0B50122002830D000292ED07F
:403C00000424420600D00524792342065B06D21800D0641C034600221EE00C2516466E43104D00277519AF720E4F002ABB51696007D0661EB24209D10B4E86197606760E45
:403C400005E05E06760E8027BE1B00E080269B198919521C2E81D2B2A242DED300221046F0BD0000BC12002079020000074900200C2242435218927A012A05D0401CC0B2F0
:403C80000628F5D30020704701207047BC120020F8B50F000446164609D0184D18496868A04202D94018A04201D38E4201D90120F8BD39462046FEF709FD00281BD03246EA
:403CC00039462046FEF711FDF0B200210C224A43521913895668F718A74208D90127A41B1B1B9772834206DAC01A1469C0B2491CC9B20629EAD30020F8BD0000BC1200209D
:403D00007902000010B500F061F80748054AC16806480C46FEF7E9FC04492046FFF76AFF10BD000079020000C00C00204010002010B500F04BF810BD002070470020054AF8
:403D4000002902D0012902D002E0506000E0906000207047C00C002070B5084C154608460549A26889182A46FEF7BFFCA0684019A06028B270BD000040100020C00C002028
:403D80003EB50A226946FFF7E7FF044606480A2200686946FEF79AFC002802D00020C0433EBD20463EBD0000C00C0020002802D0044A914201D2FF20704703490A61C860EB
:403DC0000020704779020000C00C0020024800214160816070470000C00C002070B5074C15460548626880182A46FFF751FF60684019606028B270BD40100020C00C002079
:403E000010B503490A220968FFF7E8FF10BD0000C00C002010B50F4A002313600E4A13600E4B18600E4801600E49012008600E490860000290600E490C4808600D491430F9
:403E40000860FF381538506000F0BEF800F0CCF9002010BDEC0C0020D40C0020000D0020040D0020F00C0020E00C002004140020E40C0020F80C002000207047014610B571
:403E80000020002910D0094B1A689C685118A14209D25868196080188A0704D08A07920F891A091D196010BD002010BDD40C0020F8B50024164E671E321F3D4631681368D2
:403EC00006E01422624310328A58521C1BD0641C9C42F6D36A1C14D02C461422544322460C3288500C214843FFF7C8FF3168002808510AD031680020103408517068401C43
:403F000070602846F8BD2546E4E73846F8BD0000E40C0020F3B50026F64381B000281BDB1E490968884217D80299002914D01B4F142204463F1D54432546396810354859B7
:403F4000401C09D0FEF724F938682F1F4159C359994203DBFEF716F93046FEBD214608310091465801590C20704308180C220299FEF7BBFB0948761C001D0068C159B14257
:403F800000D100260549009A091D865008684159491C4151FEF7F6F80020FEBDE00C0020002803DB07490968884202D90020C043704704491422091D0968504310300858C8
:403FC00070470000E00C0020F0B500200D4A451E0346171F50600FE014260146714314680E1DA3510C461668083433511668083435511468401C635039688842ECD30020EC
:40400000F0BD0000E40C0020F3B50026F64381B0002841DB2349096888423DD8029900293AD0204F142204463F1D54432546396810354859401C2FD0FEF7AAF838684159BD
:4040400000292BD0211D009146580C21005971430F46C1190C220298FEF747FB11480021001D0068761C00590C34C0190160416081600C48001D00680159B14200D1002644
:404080000849009A091D865008684159491E4151FEF778F80020FEBD3046FEBDFEF772F8FAE70000E00C0020FEB504460D4600201E49089E0860471E009001900290002C30
:4040C00011D0486885420ED2002A0CD0002E0AD0642E08D808460C3001681C2068430C18207A002801D03846FEBD0120226020721846FFF7DDFE6060401C13D06681A681CD
:404100000A4827610C3067610179A94200D205710021684601810A462846029B00F040F82846FEBD00202072DDE70000EC0C002038B50124009400F039F838BDFEB50027D3
:40414000164EFF433D4600240EE01C20316860430818017A002906D04068FFF721FF002801D0254603E0641C3079A042EDDA681C12D01C2130684D434419FEF709F869464E
:404180006068FFF741FF0546FDF7FCFF002DD9D1216868468847D5E7FEBD0000F80C002038B50024009400F001F838BD1FB500220C49541E0A60002811DB496888420ED830
:4041C00008491C220C31096850430818406801A9FFF7A0FE401C02D0002004B010BD2046FBE70000EC0C0020F0B50021114A4D1E174611710C3F0B46BD6016E008461C2412
:4042000060431668041D355114680646235014680836A3551468361DA353044616680A34335318301468491C255078688142E5D30020F0BDF80C002038B5002100910028C7
:4042400011DB0F49097888420DDA0D4D04010C3529680859002807D0201D0818694600F06FF9002801D0002038BDFDF791FF28680F34015D491E0155FDF784FF009838BD4F
:40428000080D0020F7B582B0002502986E1E06602E48D21C024017462D4A2C4610460C380178106805E02301C358002B0FD0641CE4B28C42F7D3711C28D03401211D401897
:4042C0000191039900F02AF900281FD101E02646F1E71F48016820460C300F521C480399026820460E30115419480399026820460F3011540398784300F0A0F81449002826
:404300000968085102D00024009011E001251AE00F48016801980818009900F02CF9002801D0012502E00098C0190090641CE4B203988442ECD3002D05D10298066004486E
:404340000179491C0171284605B0F0BDFCFF0000140D0020F8B50D4600216A468C461180002839DB23490978884235DA214B04010C3319680A59002A2ED020460C300B5AE7
:40438000801C0E5C184670438018954224D3854222D2002006E007465F43BF18AF4206D0401CC0B2B042F6D36046002814D0114E271DC8190C366A46294600F006F90028FB
:4043C0000AD168460088012808D030682946C01900F0D1F8002803D00120F8BD0020F8BDFDF7D6FE30680F34015D491C0155FDF7C9FEF3E7080D0020F8B50F46002400F0D0
:4044000031F8002817D10C4900220B460C334A600EE021011D680E466A501D680C36AA53B61C1D680F31AA551D68641C6A54E4B2BC42EED31A71F8BD080D002000280BD005
:40444000C01C074A81085068890053884118994203D89368516018187047002070470000080D0020F8B5064600200F4D009029700C0121466846FEF717FC00280CD1294680
:404480000C3100980860301B001F84B221466846FEF70AFC002801D0FF20F8BD6C800098A8600020F8BD0000080D0020F8B5002827DB19490978884223DA174C05010C3482
:4044C0002168485900281CD028460C30085A009028460E300E5C401C0E5420682F1DC01900F064F800280CD12068002445590EE0094829460C300068C01900F03CF800284F
:4045000001D00120F8BD00982D18641CE4B2B442EED30020F8BD0000080D002030B50D4604000BD0A800FFF789FF6060002805D000202570C0436080002030BD012030BD73
:4045400070B50D46040005D0002D03D00220205E002801DA012070BDFDF71AFE0221615E60688900405828606088401E6080FDF709FE002070BD70B50D46040007D0002DAC
:4045800005D002212078615E401E814201DB012070BDFDF7FDFD6088401C00B26080616880000D50FDF7EEFD002070BD10B5040009D0227800216068FEF7A0F80020C043F6
:4045C0006080002010BD012010BDF0B500231D46002802D00224045F0AE00120F0BD46689F00F6598E4201D1012503E05B1CDBB29C42F4DA15700020F0BD00000148007890
:40460000704700001C0D00207CB505460024FEF7ADF8A8796946087000A8062229460130FEF763F80021684604F01EFE0C2804D0072804D01F2804D004E0022402E004241F
:4046400000E0272420467CBD10B502280BD0032802D0042809D102E000F054F905E000F0FFF9FF2801D100F00FFAFFF71BFAFFF727FA10BD10B500F037FAFFF713FAFFF7F7
:404680001FFA10BD70B504460025FEF76FF8002C06D0A079012803D8214602F0D9FC00E00125284670BD01460120002902D05020088000207047000001460120002905D09E
:4046C000034854220078504308800020704700001E0D002010B502460D49FE204870032410460CF069FF002810D10CF00DFF00280CD105F04FFB002808D100F0FFFB0028C2
:4047000004D105F035F8002800D10024204610BD1C0D002010B5FF240CF0C6FF002804D10CF0E0FF002800D10024204610BD70B50025044600280ED0A07901280BD8FEF764
:4047400015F8A0790028204602D003F05DF803E003F032F800E00125284670BD014610B50120002904D006220248FDF7BEFF002010BD0000200D002001460120002903D0DF
:404780000878024908700020704700001E0D002010B5FFF787F9012801D1FFF789F910BD38B504460120002C20D0617801291DD800290BD0FF25E535FDF7D8FF0C4828180C
:4047C0000088C0B22070072803D00EE0FF25CD35F2E70020694608706846FFF785F969460878012801D108202070002038BD000000102E40F8B504460120002C26D061784F
:40480000012902D92278092A20D8002905D0FF25E5352078092803D004E0FF25CD35F8E708202070FDF7A2FF2078114F114E08280DD00020FFF79AF970780128207810D00A
:404840000D4969180880FE2070700020F8BD0120FFF78CF90720B8810549203188800120F2E7B8810248217820308180EBE70000C0112E401C0D002000102E4070B50E46AB
:40488000050001D0002400E00C4C002C11D0E28A500609D5D107C90F022003F053F8E08A40218843E08204E0D107C90F012003F049F83146284602F027FD70BD9C14002030
:4048C000F8B50546002004460D4E009013E022466946284601F04AF80098002801D00CF04DFEA878214602F0FDFAA878214602F0EBFA641CE4B2308AA042E8D8F8BD0000F3
:4049000054150020FEB54E4DFFF7CCF8012849D14C480078002845D002F07EFC002841D004F01AF900283DD0474C6078C00703D000F0E6FC012835D0207E00287DD1607888
:40494000002600285BD0000706D540488089070B00F02EF9384370D13B484178684603F065FF044628793A4DA9784018C1B2A14261D802F051FC00285FD034486030008980
:40498000314F0190203702F09DFA6846008802F0C7FA02F057FB2F490988884203D10120FFF7BEF849E02C49012008702648807B00281BD00198002818D04037F87E0028F4
:4049C00014D12248603000884000A0420AD96878002807D102F0E4FF2049088A03221202104308822878002800D02E7002F0C6FA0120FFF78FF800F0F5FB174C15E002F0D5
:404A00000BFC002819D0102402F01CFB214602F011FA02F085FA104C0120207002F0AEFA0020FFF777F800F0DDFB20780128B6D1FFF704F826700020FEBDFF20FEBD0000D3
:404A400074140020B40C00207C140020A0102E402C0D00203E0D0020260D0020E0112E4010B50848FF244078002809D102F0D4FB012805D1FEF704FF0720FFF751F8002436
:404A8000204610BD7C14002038B5FFF70BF8012801D0002038BD02F0BFFB00280AD0114C6078C00703D000F02BFC012802D0207E002801D0FF2038BD617800290FD0684655
:404AC00003F0B4FE022806D96846008802F028FA012002F059FA0320FFF722F8D9E70020F7E700007C14002038B51E4CFEF7DAFF042813D0052811D0062812D003282AD040
:404B000007280AD100206946087002460120FEF7C9FEFEF7C7FF0128FBD138BD00F082FB38BD02F049FA00F07DFB02F0C5FA8007800F0228F4D10C4841880029F0D05B2123
:404B4000095D0029ECD101210170A07D0140022002F0F8FE38BD02F033FA0120FEF7E0FF38BD00009C1400202C0D0020F8B50646002402F055FF0546304602F06BFF0346FE
:404B80000A480021068A0DE001228A401046174628401F40002803D0002F01D1224394B2491CC9B28E42EFD82046F8BD5415002070B500252C460A4E03E0002C01D00020C8
:404BC00000E030460079002803D02046FFF7CEFF0543641C2406240EEFD0284670BD00009C1400201CB50020694648706846FFF7D7FD01AA69460A20FEF754FE6946042006
:404C000008561CBD10B50C4601F082FA002809D00179002906D0C1788078224602F0FAFB002010BD022010BD0148007870470000741400204030C07E002800D00120704745
:404C400000B500F001F800BD8C2148430749084A40186030417F491CC9B24177D289914201D300214177C8B2704700007C1400205415002013B501F04BFA04000BD001F0AC
:404C8000E8FD002807D0214601AA0A310620FEF709FE00201CBD02201CBD000010B50C4601F036FA00280AD001F0D3FD002806D0224604490A20FEF7F5FD002010BD0220DF
:404CC00010BD00005D140020F3B581B0074601460026029802F09CFE0446002F01D0002500E0154D002D21D0284601F047FA032C04D13946029802F0E7FE064638460299D5
:404D000002F0E2F8032C06D0002C10D00121384601F03AFB03E03146384603F0D1F8284601F0C0FF0221284601F0D6FFFEBD3846029902F0C9F8FEBD9C14002010B50446A6
:404D400003F008FD002801D00C2010BD2078611C02F062FCFF2801D01F2010BD02F0A8FCFF280AD02178621C02F036F8044821780068026B601C904710BD072010BD000044
:404D8000440D002010B503F0E5FC002801D00C2010BD02F023FC03480068C06A8047002010BD0000440D002070B50D46044610210CF024FB1021601806460CF01FFB334652
:404DC00010221946204603F0F3FC102130460CF015FB02202870204604F022FC70BD0000F8B504464078217802028006870FE0781143A67809050002090D0643084601F0E8
:404E000087F900210546F2B2002812D0002C10D0022F0ED0032F0CD0002A0AD00279092A07D0002A05D0134A5A23527E1B5C9A4207D82889002104F028FB20460CF09EFB67
:404E4000FF21002914D10C48224600682946436930469847C0B2FF280AD128464030817EF2B2491C8176FF232146284600F0DDF8F8BD0000341400205C0D002000207047E6
:404E800010B5044603F066FC002801D00C2010BD2078611C02F0C0FBFF2808D002F0F8FA044821780068426B601C904710BD1F2010BD0000440D002010B504F059FC00F062
:404EC00057F9002010BD10B5044600786178E2780843A17811430843217908436179084305D003F029FC002803D00C2010BD122010BD204602F088FC002010BD10B5FDF74C
:404F000067F902F0AFFD044803F07AFD02F0CAFA012000F003F810BD44140020F1B586B003A8009005A8019025489F22817A114081726846FDF746FC00283FD16946098997
:404F4000C90705D01F4806990068C2686846904769460989890706D500282FD11A480068816A06988847002828D1184E0025757075737571F575357675767575B570F570A6
:404F8000B5713746F5730120BC3738731F20F880FF2130467972A0300175457500F076FA00242046069901F0FFFB002803D1641C2406240EF5D0FD72BD72B57307B0F0BDB4
:404FC000341400205C0D0020440D00207C14002070B505460E46084602F022FD0446304602F038FD0121A9400A46224001400A4301D0012070BD002070BD10B50446084681
:4050000002F028FD0121A140014201D0012010BD002010BD10B5FEF745FD032804D101F0CFFF0120FEF77CFD10BDFEB51C4616460F46054601F036FEA878FFF701FE0246BD
:405040000190334639460094284600F00DF8002808D1A8780199FFF711FCFF2C02D138460CF08CFAFEBD0000FFB585B005460E980C46FF2810D02B49C00009680A584018A7
:405080000179C0795278814201D9012601E09006860F6846038108E06078A1788006860FE0780002014368460181284601F0DCFB070007D021462846079A00F0EBFB3846D1
:4050C00009B0F0BD304600F099FC04AE0346039002AA29460096204600F025FB3C20405D002818D0284601F0BFFB012813D0684600890096C0B20190A878231DFF2207997B
:4051000002F0B6F868460089039BC2B2A878079902F0F6FBD3E7684600890021C0B20091E9E70000580D0020F8B5104F002500242846FFF71BFD060012D00EE03046E0403C
:40514000C007C00F07D02146284601F0B3FE21462846FFF7B9FD641CE4B2388AA042EDD86D1C2D062D0EE2D0F8BD00005415002010B502F097F90020FFF7D0FE0CF094FAAF
:40518000002010BDF8B5002400F0B4F80123012800D10124104F00203E4620360425082203E0002801D0002100E031460979002907D001290BD002290BD011468140214349
:4051C000CCB2401C0006000EEBD07C70F8BD1C43F7E72C43F5E700007C14002010B5FFF7D1FF10BD70B50E4CFCF7B7FA0546FEF759FC062802D02078012803D02846FCF728
:40520000B0FA70BDFCF750FC2846FCF7AAFAFEF749FC0628F5D020780028E5D170BD0000260D002010B5FCF798FA0446FEF73AFC012809D0FEF736FC022805D0FCF734FC26
:405240002046FCF78EFAEEE72046FCF78AFA10BD10B50B4681791943817103D08078114602F01CFB10BD10B582798A43827102D1807802F027FB10BD30B50C4C0220A28AC1
:405280000B4B9978002901D0022906D11D785B78EB18282B01D9032002E0032900D101205105490DC0020143A18230BDC0112E40270D002000B500F023F8002807D0012893
:4052C00005D0032801D0042801D0002000BD012000BD014600B50020C90701D000F00AF800BD014600B50020C90701D000F002F800BD000001480088000A704720102E4025
:405300000448008B410501D5042070474007800F7047000000102E4038B50446000610D5FFF7EEFF01280CD1684601F059FE6846007800F0B3FA012001F01CFD0220FFF78D
:405340004DFF0348006801692046884738BD0000440D002010B5034A0178117002F0C0F9002010BD270D002070B50446FFF7C2FF002801D00C2070BDA27B01211F48002AE9
:40538000827801D00A4301E05208520082706279012A14D0C17849084900C170184D2868016820468847207901280CD06188208803F000F82080207904280FD015E0C27848
:4053C0000A43C270EAE72868C168E01D8847E01D02F006FA0B48808C208006E02868C168E01D8847E01D02F0FBF9074920798870204602F083F9002070BD00007C140020EA
:40540000440D002034140020270D002008B50178FFF770FF814201D10C2008BD002914D0072069460870FFF745FF012807D10121684600F08BF8012801D0092008BDFFF767
:405440001BFF02F08FF9012011E0FFF733FF012806D1684601F0C4FD6846007800F052FA02F076F9FFF746FF0028FBD10220FFF7B5FE002008BD000010B5034A0178517010
:4054800002F0ECF9002010BD270D002038B568460CF00AF8002801D01F2038BD01210098C90201804180002505714571857107214173857302F022F9009C202200212046BA
:4054C000FDF71CF925702A460021601CFDF716F9204602F005F9204602F0C0F900980CF04DF8042200210248FDF708F9002038BD270D00200346084800B5834209D818467D
:4055000000F006FE002804D00089984201D1012000BD002000BD0000FF0E0000074A9179491C8906890E917138220A4092014907090E114308430249084070477C1400205F
:40554000FF0E0000C006C00E70470000F8B507460E4600240D4803E0002C01D0002500E005462979002905D0641C2406240EF3D00020F8BD0021204601F016F92E7120463C
:40558000FFF7CCFF28813C700120F8BD9C14002010B503F041F90222002100F003F801F02DFF10BD10B5094B40074907000F090F185A595A40185043C0086421FCF764FF99
:4055C000002800D1012080B210BD0000343F0100F7B53D20405C88B015460C46002802D02878042802D200200BB0F0BD6946087200262046FFF71EFB012800D00126204628
:4056000003A938300191009023460327A17E34333246206A03F00EFA02A8089900900B46019120463A4603A9243003F0A1F802466846007A2870204601F0A2F81046D3E7E5
:40564000FFB587B00C4605461078694608723D20005D1746002826D000262046FFF7EAFA012800D00126204603A93830019100902346A17E34333246206A03F0DBF902A838
:405680000090291D019120462B1D03A924300A9A03F06EF802006846007A388002D1204601F06EF810460BB0F0BDF0B505463C20405C89B016460C4600280CD0307869467D
:4056C0000873002806D000272046FFF7B3FA012803D003E01F2009B0F0BD012703200890204604A93830019100902346E17E34333A46E06903F09EF96846007B03A9281866
:405700000290009120462B46019504A92430089A03F062F802466846007B3070204601F039F81046D7E7FFB505463C20405C89B016460C46002810D0084601F095F8012861
:405740000BD0308869468883002809D000272046FFF770FA012805D005E000200DB0F0BD0220FBE70127204603A93830019100902346E17E34333A46E06903F05BF9291D34
:405780002B1D07A8129A6D4607C5204603A924300C9A03F021F802466846808B3080204600F0F8FF1046D9E770B50D460446FFF741FA01280AD0E87AA97A00020143A078C2
:4057C00001F008FD012808D0002070BD00222421204602F041FD242070BD28214C200155204600F0A3FB282070BD0000002801D0002000E003484030C07F012800D0002077
:40580000704700009C1400200146002049070ED50021084B03E0002901D0002200E01A461279022A04D0491C0906090EF3D07047012070479C1400200146002049070ED5C2
:405840000021084B03E0002901D0002200E01A461279022A04D0491C0906090EF3D07047012070479C14002010B5044680346068002803D00BF096FE0020606010BD40300B
:40588000417070474030817070474030017070470171704792001018C166704770B53C2501F080F9040004D020460021433001F031FCFF222946204600F0D4FB002C02D07C
:4058C000A07801F0F1F870BD10B5002801D0002000E00348002802D0008903F01DFE10BD9C14002010B5002801D0002000E00448002804D00179072901D100F047F810BDD4
:405900009C14002010B501F04DF9002802D0807801F0CAF810BD00207047000070B50546008A00281ED01049F122897A1140C90618D5294640314A8A098A521C4A4392B240
:40594000D10800D10121540801E0621A94B2A042FBD9FEF753FE012804D1298AA878224601F00EFD70BD00003414002010B50023054C0B60248A944204D992001018C26EA7
:405980000A60C36610BD00005415002038B5044600200090A079002814D14020015D052901D00E290ED168460BF08EFD002809D12046009902F02EFC03481021C28A20469F
:4059C000FFF746FC38BD00003414002010B50B4604460146184602F0ABF8002802D020460BF0D6FD10BD13B5044601AA11460620FDF758FF6846818861811CBD002800D18D
:405A00000220704770470000F8B504462346401D543300909A1EA078911E01F0FDFA25464035A88A298A8000FCF72EFD401E81B2688A884203D96982A07801F0BDFF2046F9
:405A40000021433001F066FB27480088E88102F0E3FEE989891C8AB26179FFF7A3FD01F0CDFC02F0D9FE2A8A6179FFF79BFD074601F0B8FC688A002806D01C49088A0322AD
:405A800012021043088202E0002001F089FF1748803801886E8A002E0CD0304648431449FCF7E2FD0004000C01D0401C80B21149488002E00F4800214180288A704381B264
:405AC000A07801F0D9FEFF2228374932B9B21346204602F073FCE98AA07801F04DFEA07801F012FAF8BD000080102E40E0112E40710200002C0D00207FB50446803461688B
:405B000005460E46183108226846FCF7EEFD31462031082202A8FCF7E8FD102168460BF06DFC6068102108300BF068FC60682B46083024331022694602F03AFE7FBD10B5AC
:405B400004460821FFF78FFB10212046FFF78BFB207905281FD006281DD008281AD12189002003F051FC072020712046FFF762F8014620464030012913D00E2101700021D1
:405B80000176204600F0A2FF2046FFF76DFE2046FFF7C4FE10BD20890122002103F018FCE1E70521EAE70000FFB581B01F4604460821FFF758FB10212046FFF754FB207997
:405BC000082803D0092804D0042203E00422012501E009220025204600F032FE264600204036307022712046FFF73EFE0398002D02D0012808D00BE001280AD1208900226F
:405C0000029903F0E5FB04E02189029803F0FCFB012700203076012F04D0204600F056FF05B0F0BD02983073204602F041FB054605480121C28A2046FFF70AFB002DEFD1C0
:405C400009202071ECE700003414002070B50C460546FEF7EFFF012809D108212846FFF702FB0023012221462846FFF79DFF70BD10B5044600F0E4FD2046FFF7F5FD0021D4
:405C80004034217010BD70B505461A24FEF7D2FF012809D108212846FFF7E5FA0023012221462846FFF780FF70BD0000F8B50446002000900E4668460BF006FC002801D0D3
:405CC0000D20F8BD8420005908212030009D00F01AFA20460421383000F015FA002E02D1204600F0E9FD2946204602F022FA0E480821C28A2046FFF7ABFA204600F057FF21
:405D000025464035002808D0204600F023F8002801D0092028700020F8BD08202870204600F0C0FFF7E7000034140020014610B540310A460978082906D0092907D00A29D7
:405D400001D100F091F810BD0B20107010BD00F001F810BD70B50446007925464035052805D0062803D008280FD00C2070BD03220621204602F070FA0D480821C28A20466C
:405D8000FFF766FA1120287010E006202873204602F08EFA0646AA8A0A20424301212046FFF756FA002E01D109202071002070BD3414002038B504460020009068460BF037
:405DC00083FB002801D00D2038BD2046009D00F0B1F908202071204600F06EFD2946204602F0DAF900213D2001550F2040210855204600F057FF002038BD00B5024600F0EA
:405E00001FFD10214032117000BD10B50446FEF711FF012809D04020005D112805D100231A4606212046FFF7BFFE10BD10B5FFF786FE10BD38B504460021684600910BF055
:405E400043FB00280CD12046009902F026FA05480821C28A2046FFF7FBF90D204034207038BD00003414002038B504460021684600910BF029FB002801D00D2038BD2046F7
:405E8000009902F0FFF905480821C28A2046FFF7DFF90C2040342070002038BD3414002000787047F8B50025002801D0002400E01A4C002C28D0204600F0CBFC002823D0FC
:405EC000207903281CD005281CD026464036B18AA07801F0DBFCB078012815D10021204601F043FE274680373868002802D00BF059FB3D600020B0702079072805D007E07E
:405F0000042000E006202071F8BD2046FFF706FD0221204600F0E0FEF8BD00009C14002010B54C22115400F04CF810BD10B50446FF21FFF798F909202071A07801F0CCFCDC
:405F400010BD000038B5FF216A461180002801D0002400E0084C002C0DD011460620FDF7A1FC684601882046FFF73DFD03480068C1692046884738BD9C1400205C0D002071
:405F800010B504468079002809D022214C200155FF212046FFF767F9204600F012F810BD10B5037902464032002B03D01173092B02D003E0002100E02221117300F001F8B3
:405FC00010BDFEB504460089002700902781207926464036002817D0012815D002280AD112E002AA01A9204601F090FD002807D101980BF0CDFA204601F0B0FD0028F0D0DF
:406000002046FEF75DFCB776254680352868002802D00BF0C7FA2F606868002802D00BF0C1FA6F60317B002919D0009800F064F8A078002100F082FF2046FFF7A9FAA078D8
:4060400001F0B2F8A07800F02FFDFF212046FFF70AF90B20FFF7C2F800F068FCFEBD1F213173E2E7F8B517460E46054602F0D0FB04003CD020460C3001F03CF82046062270
:4060800000211830FCF73AFB2046062200211230FCF734FB1648224600683946436A28469847074626702846FEF7C4FD012148406070002D10D02889608028464030C1785F
:4060C0002171002E0FD169796171018AE180418A2181808A608106E00648008BC005C00F2071002060803946204603F010F9F8BD440D002000102E400A4610B50146002023
:4061000003F022FA10BD10B50AF054FF10BD000000B50146FFF716FA002801D0002000E00348002802D002898A4200D0002000BD9C14002038B5044680346068002806D1DE
:4061400068460BF0D1F9002801D100986060606838BD000010B5014600F086FB0128887802D0FEF771FD10BD8C214843024940186030007F10BD00007C14002070B505461E
:4061800004464035A87F012811D1A1788C20084A484380186030067F3046FEF719FF002805D10220A877A078314601F0B7F870BD7C14002010B50C4CA07A002813D0FEF79A
:4061C000B3FF0A48027F417F408B00F0B7FB012809D10020A07200F019FF05498989090B01D000F03BFA10BD381500207C140020A0102E4070477047490510B5490F0B005A
:40620000FCF788FC060704080C0C0F073E21FFF787FE10BD0821FFF7C3FE10BDFFF7D1FE10BDFFF7ADFE10BDF8B507460025002D01D0002600E0204E00F096FE3046403051
:4062400044890021418100F0AFFE304600F001FB01282BD1A00702D52846FFF723FEE00602D52846FFF76EFEA00601D5FEF75CFF600601D500F014FB200602D5284600F058
:406280001DF8600702D5284600F02CFA380402D52846FFF727FB780402D52846FFF714FBE00703D021463046FFF7A6FF6D1C2D062D0EBCD0F8BD00009C140020F8B5002899
:4062C00001D0002400E0284C002C4BD025464035A878012846D1FF278820493700593E46002805D02149897A890601D5878AC68A2046FEF79FFC012834D002F08DFA2A8A23
:406300006179FFF74FF9009001F06CF800983346283081B23A46204602F050F8E98AA07801F02AFA12480188688A124E002810D048431149FCF798F90004000C01D0401C21
:4063400080B27080A07DC107C90F002001F0FAFA01E000207080288A698A484381B2A07801F08AFAF8BD00009C1400203414002060112E402C0D0020710200000149096805
:40638000096808475C0D002070B50D460026194A0146002801D0002401E014462034002C26D0204600F060FA01280AD18C20484380186030007FFEF70BFE002801D101F003
:4063C000F7FE0D48006881692046884700280CD020464030817EA94202D3491B817600E086762089294603F050F8204600F05AFC70BD00007C1400205C0D002070B5034629
:406400000088FFF785FE040013D000F022FA00280FD02079092819D02546997840352973204601F045FF0646A878012803D0AA8A02E0022070BDEA880A2042430121204610
:40644000FEF706FF002E01D109202071002070BD0EB5002217216B460292198100905A810120029B00990BF042F90EBDF8B518480024807A002822D1164E0025B089000B49
:4064800022E0204600F060FE1249A039401807882A462146384600F051FA012810D00E480122478305770A4944778A72002D01D0002000E02030002801D000F0F3FBF8BDCF
:4064C000B089000B641CE4B20028DAD1F8BD000038150020A0102E407C14002010B50088FFF716FE002809D0014640310C460978082905D00B2903D00C2010BD022010BDA7
:40650000FFF728FC002801D009202070002010BD70B503460088FFF7FBFD040008D0254640352878082805D00B2803D00C2070BD022070BD8420005910220830991CFCF7A0
:40654000D4F82046FFF7D8FA2878082804D02046FFF78AFC002801D00A202870204600F0A1FB002070BD000010B50C46002121700088FFF7CDFD03000BD000F06AF9002837
:4065800007D00948F121807A0840C00603D4112010BD022010BD022020701A8A1889002102F0EEFF002010BD34140020F8B50F46002100910088FFF7ABFD040012D000F0D9
:4065C00048F900280ED0E079410641D4617E02264A07002A08DB8907402500291ADA2843E07135E00220F8BD02F012F90021017021894180A1898180217E4170E189C18060
:406600003E7005460178134802F094FC284602F05BFF1DE0204600F02DF9012806D068460AF052FF002803D00720F8BD2A20F8BDE07900992843E071204601F063FE607EC6
:406640000421304360760448C28A2046FEF700FE0020F8BD1D040000341400203EB500220F236C460292238100910190628169460EC900200BF03BF83EBD0000F8B50F4656
:40668000054600F08FFA040025D003202071254600264035EE76E6702046FFF7B5F901F057F80920FEF79AFDA07800F06BFD0121204600F011FB2E706E70AE703A4600217B
:4066C0002046FFF7CFFC0649887B401C8873A078FFF754FEF8BD284601F0FEF8F8BD00007C14002010B5002801D0002000E0094800280DD0014640310A464978022901D121
:4067000000215170807DC107C90F002001F01AF910BD00009C14002070B503460D460088FFF7F6FC04000BD000F093F8002807D01248F121807A0840C00603D4112070BDE6
:40674000022070BD20464030418A008A491C41430804C10C5888884201D2122070BD20822079072802D12046FFF7D8F8022028702089002102F02CFF002070BD3414002042
:40678000016A491C016204D1817E491C4906490E81767047C169491CC16104D1C17E491C4906490EC1767047F0B5074687B003A8009005A800260D460190002F01D000241C
:4067C00000E01B4C002C05D06846FBF7FBFF002803D00BE0022007B0F0BD68460089C00704D18C2200212046FBF788FF114829460068826820469047050016D1A770667694
:406800002746267140373E70204600F019F8204601F0A0F9084820820848BE77807AF121084000D001202075E682E8B2D3E700009C1400205C0D0020B80B00003414002047
:40684000002101628176C161C17620300177417770470079002805D0012803D0022801D001207047002070474030807F002800D00120704740300078002807D0012805D0CD
:40688000052803D00E2801D0012070470020704710B5807801F0DEF8002800D0012010BD10B500F0B3FB03498989090B01D0FFF7D5FE10BDA0102E4070B50546044640352F
:4068C000A87F002825D1FF206075A0788C21154A484380186030417F8C23491CC9B24177A0785843104B8018DB896030994201D300214177A0788C21484380186030467F22
:406900000677A1783046FEF763FB002802D00120A87770BD0220A877A078314600F0FEFC70BD00007C140020541500200020401C0006000EFBD0002070470000F0B515463F
:406940008207920F85B0000A02926A469080002D01D0002400E0524C002C28D0084600F0F3FB07466846808800280BD00298012843D0022841D003280BD03D20005D01286A
:4069800070D087E04748381801882046FFF72BF880E00020029002A80AF076FD002807D03D20005D012878D12046FFF7E9FE74E06846029E8388324600213846FCF772FE8B
:4069C0003848381801882046FFF70DF8284600F0ADFA01AA21463046FEF7FAFD002806D030460AF0C1FD3D204C21085528E0F5773146204601F014FA4FE000200090208939
:406A0000039068460AF030FD002802D0002005B0F0BD6846009E8388321D00213846FCF741FE2048381801882046FEF7DCFF284600F07CFA25464035287E00280CD103E042
:406A40002046FFF773FA28E001AA21463046029BFEF7F6FD002806D030460AF07BFD3D202873EDE713E00298FEF7CCFF01460398307003980901000A084370706846808827
:406A8000B070000AF0703046FFF7E2FC05E02046FFF776FE284600F049FA0120B7E700009C14002000102E4010B5074A917B002901D0491E91730021FFF776FE002801D094
:406AC000002010BD012010BD7C140020F8B5074606464037B87F00282DD0B0788C2100904843234945186035287F0099FEF785FA01281ED0287F401CC4B21E48C089A042CF
:406B000000D800240020B877FF276F772F77A87702460146009800F06DFD717DFF2903D0304600F0D8FF777501F042FB0025114F19E00320B877F8BD00200090224669462C
:406B40003046FEF713FF0099002904D0FF231A463046FEF76AFA641CF889E4B2A04200D800246D1CEDB2F889A842E5D8F8BD00007C1400205415002010B502460021084B7D
:406B800003E0002901D0002000E018460479944204D0491C0906090EF3D0002010BD00009C14002000B50120FFF7E6FF00BD10B5044601F02DFE2189018080346168416086
:406BC00061682831816002F039FC10BDF7B50646087982B00C46092807D0A078F0770846FFF742FE012806D010E030460AF0D0FC022005B0F0BDA1788C20294A484380188C
:406C00006030007FFEF7E4F9012810D0A078FEF7EDFD01280BD037780121304601F074FA25462035062F38D00B2F0FD107E06846027C21463046FEF7C9FE0D20D9E72046B3
:406C4000FDF7F8FF012801D1002028772046FFF781FA054604AA21463046FEF726FD01205F2108556946097C002001910090A07833463A46294600F0FBFA69460A7CA07884
:406C80000323294600F03CFEA0782946FDF7F6FD30460AF07DFC0020ABE70120D5E700007C14002010B502464032937F0021002B03D1927E002A00D00121064A927A002A1C
:406CC00000D000210279092A00D10121807800F059FE10BD3815002070B50C460546FDF7A9FF00280BD1012C06D92879092806D02846FFF7CDFD0446002C02D004E00124F4
:406D000002E0A87DC007FAD1A87DC107C90F204600F018FE70BD0000012807D0082804D104480282034808300180704701488038FAE70000A0102E40014908817047000042
:406D400000102E4010B50446FF20F130012C01D1FF20D530002200F047FE044A108A044980B2A0430880108210BD000000102E40300D0020034B198A034A89B281431180F2
:406D80001982704700102E40300D002010B50446012802D0082C07D102E0FF20D53001E0FF20F13000F018FE0348018A034A89B221431180018210BD00102E40300D0020E5
:406DC000034B198A034A89B2014311801982704700102E40300D0020F8B505460120A84086B214460F46012231467C2000F0FCFD3A463146782000F0F7FD60782678000226
:406E00000643E078A2780002024360792379000203430C2045430D2080010549281844182680001D44182280001D40180380F8BD00102E40401880B270470000CB065B0EE0
:406E40000343480901021943D00108430121C902084301490881704780142E404278037812021343084A1382C37880781B021843908248780B78000203431383C878897897
:406E8000000201439183704700142E40024A1080000C90801181704700142E40044A002180180288491C89B21029FAD37047000000102E40024A1082014880308181704780
:406EC000A0102E407047000010B5054A1082084600F0AEFD024A0021A03A8018018010BDA0102E4010B50B46044600F005F819462046FFF7DFFF10BD024A10820148803059
:406F000001817047A0102E4010B504490882FF20002220211D3000F067FD10BDA0102E400149088070470000C0102E40000202494D3008807047000000102E4010B5084BEA
:406F4000074C0202A03B0029208202D075321A8010BD04490020088088807632F7E70000A0102E40201A2E4000B5034908884880FFF700FF00BD0000300D002001495020C9
:406F80000880704700102E4006490E220028888806D01043888003495120C039088070479043F7E7C0102E4000B502484088FFF707FF00BD300D002010B5FCF75DFD10BD8C
:406FC000014952200880704700102E40884201D8081A03E00022D243101A401880B2704700210170704700000748808806492039098B884201D8081A03E00022D243101AE9
:40700000401880B27047000020112E400148008AC0B27047A0102E4070B5084C049D2082074804890548603006880E8001891180808818806007400F287070BDA0102E4071
:40704000E0112E400148008970470000C0102E4000280FD00D4A108B0870000A4870908B8870000AC8700948203000880871000A48717047064A10880870000A487090880C
:407080008870000AC8701089F0E7000040102E40C0112E4000B5024A00F004F800BD0000FF7F000000B51346FFF790FF984201D8022800D2002000BD0148008A7047000058
:4070C000001A2E40024908820248008970470000A0102E40001A2E40014880887047000020102E40024908820148803000887047A0102E40064B1A8999891B8A0270120AE9
:4071000042708170090AC1700371190A4171704760102E40012904D00549098BC90B017070470349403109898907C90FF7E7000000102E400249088202480089704700003C
:40714000A0102E40201A2E40014840897047000054150020024908820248808970470000A0102E40001A2E40044A10820448028980894843101880B270470000A0102E40F8
:40718000541500208C21074B414300B5C918FF2260314A770A7700228A77114600F02AFA00BD00007C1400208C225043074A10B58018FF216030417701770021817704480A
:4071C000418EFF201D3000F007FC10BD7C1400203414002000B5044A1082034880308088022200F003F800BDA0102E4010B50023884201D8081A03E00024E443201A40188D
:40720000044980B2884201D8824200D90123184610BD0000FF7F0000024880880006C00F70470000C0102E4002488089C007C00F70470000201A2E4070B5547815782402BA
